{
  "contractName": "Voter",
  "abi": [
    {
      "constant": true,
      "inputs": [
        {
          "name": "",
          "type": "uint256"
        }
      ],
      "name": "options",
      "outputs": [
        {
          "name": "",
          "type": "string"
        }
      ],
      "payable": false,
      "stateMutability": "view",
      "type": "function"
    },
    {
      "constant": true,
      "inputs": [
        {
          "name": "",
          "type": "uint256"
        }
      ],
      "name": "votes",
      "outputs": [
        {
          "name": "",
          "type": "uint256"
        }
      ],
      "payable": false,
      "stateMutability": "view",
      "type": "function"
    },
    {
      "constant": false,
      "inputs": [
        {
          "name": "option",
          "type": "string"
        }
      ],
      "name": "addOption",
      "outputs": [],
      "payable": false,
      "stateMutability": "nonpayable",
      "type": "function"
    },
    {
      "constant": false,
      "inputs": [],
      "name": "startVoting",
      "outputs": [],
      "payable": false,
      "stateMutability": "nonpayable",
      "type": "function"
    },
    {
      "constant": false,
      "inputs": [
        {
          "name": "option",
          "type": "uint256"
        }
      ],
      "name": "vote",
      "outputs": [],
      "payable": false,
      "stateMutability": "nonpayable",
      "type": "function"
    },
    {
      "constant": false,
      "inputs": [
        {
          "name": "option",
          "type": "string"
        }
      ],
      "name": "vote",
      "outputs": [],
      "payable": false,
      "stateMutability": "nonpayable",
      "type": "function"
    },
    {
      "constant": true,
      "inputs": [],
      "name": "getVotes",
      "outputs": [
        {
          "name": "",
          "type": "uint256[]"
        }
      ],
      "payable": false,
      "stateMutability": "view",
      "type": "function"
    }
  ],
  "bytecode": "0x608060405234801561001057600080fd5b50610ad2806100206000396000f300608060405260043610610083576000357c0100000000000000000000000000000000000000000000000000000000900463ffffffff1680630121b93f146100885780630dc96015146100b55780631ec6b60a14610121578063409e2205146101385780635df81330146101de578063edc550dc1461021f578063fc36e15b14610288575b600080fd5b34801561009457600080fd5b506100b3600480360381019080803590602001909291905050506102f1565b005b3480156100c157600080fd5b506100ca6104d7565b6040518080602001828103825283818151815260200191508051906020019060200280838360005b8381101561010d5780820151818401526020810190506100f2565b505050509050019250505060405180910390f35b34801561012d57600080fd5b5061013661052f565b005b34801561014457600080fd5b506101636004803603810190808035906020019092919050505061068e565b6040518080602001828103825283818151815260200191508051906020019080838360005b838110156101a3578082015181840152602081019050610188565b50505050905090810190601f1680156101d05780820380516001836020036101000a031916815260200191505b509250505060405180910390f35b3480156101ea57600080fd5b5061020960048036038101908080359060200190929190505050610749565b6040518082815260200191505060405180910390f35b34801561022b57600080fd5b50610286600480360381019080803590602001908201803590602001908080601f016020809104026020016040519081016040528093929190818152602001838380828437820191505050505050919291929050505061076c565b005b34801561029457600080fd5b506102ef600480360381019080803590602001908201803590602001908080601f01602080910402602001604051908101604052809392919081815260200183838082843782019150505050505091929192905050506107ca565b005b60008110158015610306575060018054905081105b151561037a576040517f08c379a000000000000000000000000000000000000000000000000000000000815260040180806020018281038252600e8152602001807f496e76616c6964206f7074696f6e00000000000000000000000000000000000081525060200191505060405180910390fd5b60001515600460003373ffffffffffffffffffffffffffffffffffffffff1673ffffffffffffffffffffffffffffffffffffffff16815260200190815260200160002060009054906101000a900460ff161515141515610442576040517f08c379a000000000000000000000000000000000000000000000000000000000815260040180806020018281038252600d8152602001807f416c726561647920766f7465640000000000000000000000000000000000000081525060200191505060405180910390fd5b600160008281548110151561045357fe5b90600052602060002001540160008281548110151561046e57fe5b90600052602060002001819055506001600460003373ffffffffffffffffffffffffffffffffffffffff1673ffffffffffffffffffffffffffffffffffffffff16815260200190815260200160002060006101000a81548160ff02191690831515021790555050565b6060600080548060200260200160405190810160405280929190818152602001828054801561052557602002820191906000526020600020905b815481526020019060010190808311610511575b5050505050905090565b60006105396109e5565b600260009054906101000a900460ff1615151561055557600080fd5b600091505b60018054905082101561066f57604080519081016040528083815260200160011515815250905080600360018481548110151561059357fe5b9060005260206000200160405180828054600181600116156101000203166002900480156105f85780601f106105d65761010080835404028352918201916105f8565b820191906000526020600020905b8154815290600101906020018083116105e4575b505091505090815260200160405180910390206000820151816000015560208201518160010160006101000a81548160ff021916908315150217905550905050600080908060018154018082558091505090600182039060005260206000200160009091929091909150555081600101915061055a565b6001600260006101000a81548160ff0219169083151502179055505050565b60018181548110151561069d57fe5b906000526020600020016000915090508054600181600116156101000203166002900480601f0160208091040260200160405190810160405280929190818152602001828054600181600116156101000203166002900480156107415780601f1061071657610100808354040283529160200191610741565b820191906000526020600020905b81548152906001019060200180831161072457829003601f168201915b505050505081565b60008181548110151561075857fe5b906000526020600020016000915090505481565b600260009054906101000a900460ff1615151561078857600080fd5b60018190806001815401808255809150509060018203906000526020600020016000909192909190915090805190602001906107c5929190610a01565b505050565b6107d26109e5565b60001515600460003373ffffffffffffffffffffffffffffffffffffffff1673ffffffffffffffffffffffffffffffffffffffff16815260200190815260200160002060009054906101000a900460ff16151514151561089a576040517f08c379a000000000000000000000000000000000000000000000000000000000815260040180806020018281038252600d8152602001807f416c726561647920766f7465640000000000000000000000000000000000000081525060200191505060405180910390fd5b6003826040518082805190602001908083835b6020831015156108d257805182526020820191506020810190506020830392506108ad565b6001836020036101000a0380198251168184511680821785525050505050509050019150509081526020016040518091039020604080519081016040529081600082015481526020016001820160009054906101000a900460ff16151515158152505090508060200151151561094757600080fd5b60016000826000015181548110151561095c57fe5b9060005260206000200154016000826000015181548110151561097b57fe5b90600052602060002001819055506001600460003373ffffffffffffffffffffffffffffffffffffffff1673ffffffffffffffffffffffffffffffffffffffff16815260200190815260200160002060006101000a81548160ff0219169083151502179055505050565b6040805190810160405280600081526020016000151581525090565b828054600181600116156101000203166002900490600052602060002090601f016020900481019282601f10610a4257805160ff1916838001178555610a70565b82800160010185558215610a70579182015b82811115610a6f578251825591602001919060010190610a54565b5b509050610a7d9190610a81565b5090565b610aa391905b80821115610a9f576000816000905550600101610a87565b5090565b905600a165627a7a7230582081fdd4bd1a9bfe33c0edee7608d1e1aecf55fd8b804e10e527a8ac75d21e243f0029",
  "source": "pragma solidity ^0.4.24;\n\ncontract Voter {\n    uint[] public votes;\n    string[] public options;\n    bool votingStarted;\n    \n    struct OptionPos {\n        uint pos;\n        bool exists;\n    }\n    \n    mapping (string => OptionPos) posOfOption;\n    mapping (address => bool) hasVoted;\n    \n    // constructor (string[] _options) public {\n    //     options = _options;\n    //     votes.length = options.length;\n    //     for (uint i=0; i<options.length; ++i) {\n    //         OptionPos memory op = OptionPos(i,true);\n    //         posOfOption[options[i]] = op;\n    //     }\n    // }\n\n    function addOption(string memory option) public {\n        require(!votingStarted);\n        options.push(option);\n    }\n\n    function startVoting() public {\n        require(!votingStarted);\n        //votes.length = options.length;\n        for (uint i=0; i<options.length; ++i) {\n            OptionPos memory op = OptionPos(i,true);\n            posOfOption[options[i]] = op;\n            votes.push(0);\n        }\n        votingStarted = true;\n    }\n    \n    function vote(uint option) public {\n        require(option >= 0 && option < options.length, \"Invalid option\");\n        require(hasVoted[msg.sender] == false, \"Already voted\");\n        \n        votes[option] = votes[option] + 1;\n        hasVoted[msg.sender] = true;\n    }\n    \n    function vote(string memory option ) public {\n        require(hasVoted[msg.sender] == false, \"Already voted\");\n        \n        OptionPos memory po = posOfOption[option];\n        require (po.exists);\n        votes[po.pos] = votes[po.pos] + 1;\n        \n        hasVoted[msg.sender] = true;\n    }\n    \n    // function getOptions() public view returns ( string[] memory) {\n    //     return options;\n    // }\n    \n    function getVotes() public view returns ( uint[] memory) {\n        return votes;\n    }\n    \n}",
  "sourcePath": "/Users/dtracey/code/eth/truffle/contracts/Voter.sol",
  "compiler": {
    "name": "solc",
    "version": "0.4.24+commit.e67f0147.Emscripten.clang"
  },
  "schemaVersion": "3.4.0",
  "updatedAt": "2021-05-01T14:32:57.670Z",
  "networkType": "ethereum",
  "devdoc": {
    "methods": {}
  },
  "userdoc": {
    "methods": {}
  }
}